CC0000000079663888CC0000000079663888RODRIGUEZ      GARCIA         HECTOR              JULIO               M505930007506240197607243S30321        20200145S00PETROBRAS COLOMBIA COMBUSTIBLES SA                00000489150053915334202206     BOGOTA                                  KR 109A 150B  79 TO 2 APTO 1101                                 0                                                   0           
CC0000000052716588CC0000000079733739SANCHEZ        BERNAL         SERGIO              ALEJANDRO           M505930008009619198012313S30429        20200137S01COMERCIALIZADORA ALCALA MOTOR S.A.S.              00000745717203978918202206     BOGOTA                                  CLL 127A NO 5C 46 TO 4 APTO 1002                                sergioasanchezb@gmail.com                           3102833643  
CC0000000052151036TI0000001014865347GUTIERREZ      CARRASCO       SEBASTIAN                               M505930008018690200808043N30329        20200634S03GUTIEREZ DIAZ Y CIA                               000  218815004451583202206     BOGOTA                                  CL 111# 13-08 APTO 202IONT 4                                    mcarrascot@hotmail.com                              3134075870  
CC0000000032907171CC0000000032907171MORENO         HERNANDEZ      LINA                CECILIA             F505930000000000198407192S30128        20200724S00BANCO CAJA  SOCIAL                                00000310009904386311202206     BOGOTA                                  CLL 160 58 50 TORRE 2 APTO 304                                  linitamoreno84@hotmail.com                          3178628108  
CC0000000041650483CC0000001018505101MOSQUERA       ROMERO         SEBASTIAN           LEONARDO            M505930004799092199808182N30438        20200827S03COLPENSIONES                                      00000642129501631322202206     BOGOTA                                  calle 159a # 13a-46 int 20 apto 402                             no tiene                                            3138067154  
CC0000000024488460CC0000000024488460GOMEZ          CANO           MARTHA              LUCIA               F505930000000000195705131S301516       00200870S00COLPENSIONES                                      00000642129504149519202206     BOGOTA                                  SANTA ROSA DE CABAL RISARALDA URBANIZACI                        malugo30@hotmail.com                                3153319031  
CC0000000039784474CC0000000039784474MERCHAN        VELA           MARIA               NUBIA               F505930009257860197006122S302519       00200145S00AIRES S A                                         00000294033053915288202206     BOGOTA                                  CLL 185A 9 38 CASA                                              MANUVELA70@HOTMAIL.COM                              3115259278  
CC0000000004130913CC0000000023622215CONTENTO       ESPEJO         MAGNOLIA                                F505930000000000196909181S301        0000100823S01JMPMULTISERVICIOS LTDA                            00000355223904254407202206     BOGOTA                                  CLL 169 77 25 T 2 APTO 806                        E114          magno.contento@gmail.com                            3212163317  
CC0000001020746945CC0000001020746945TRIANA         WANNONI        PILAR                                   F505930003221265198910171S30229        20200098S00TORRES GOMEZ JULIAN                               00000000000004540322202206     BOGOTA                                  Carrera 19C # 85-64                                             P.TRIANA118@GMAIL.COM                               3102205559  
CC0000000071652472TI0000001017927583FRANCO         SEGURA         SOFIA                                   F505930003650956200605181N30331        20200925S03FRANCO DIEZ GERMAN                                00000365095600522159202206     BOGOTA                                  AV CARRERA 45 -N. 128 D 60 INT 3 APT 305                        0                                                   0           
CC0000000016662631CC0000000031861046DUQUE          MURILLO        NELBY                                   F505930000000000196008282N302        0000101182S01COLFONDOS S A RETIRO PROGRAMADO                   00000376506603943642202206     BOGOTA                                  KR 20 182 60 APTO 703                              114          NELBYDUQUE@LIVE.COM.AR                              3152446020  
CC0000000079799255CC0000000079799255HERNANDEZ      RIVERA         WILLIAM             FERNANDO            M505930004423016197601293S30250        00200124S00LATIN AMERICAN MANAGEMENT                         00000000000053916941202206     BOGOTA                                  CLL 147 7F 12 TRR 1 APTO 1102                                   WILFER1976@HOTMAIL.COM                              3102563743  