CC0000000005902811CC0000000020332751ORJUELA        DE BOCANEGRA   ANA                 CECILIA             F505920004372605194312232N30228        20201212S01COLPENSIONES                                      00000642129501501700202205     BOGOTA                                  CR 94 H 93 B 03 QUIRIGUA                               
CC0000000003176667CC0000000020941303RAMIREZ        MUÑOZ          MARIA               NELLY               F505920009012801195905232N30228        20201405S02COLPENSIONES                                      00000642129500523061202205     BOGOTA                                  CL 6B N 6A 73                                          
CC0000001010204839CC0000001010204839FERRO          VEGA           MARIA               ANDREA              F505920000000000199211023S30130        20200224S00MILLWARD BROWN COLOMBIA S.A.S                     00000747700005292346202205     BOGOTA                                  CLL 23B 68C 40 INT 1 APT 402                           
CC0000000017105965CC0000000017105965GUERRERO                      JULIO               ROBERTO             M505920002713698194408131S30130        20200977S00COLPENSIONES                                      00000642129501612189202205     BOGOTA                                  CR69D #96-39 INT 2 APT 204                             
CC0000000019083244CC0000000019083244VIVAS          BENITEZ        JOSE                ALEJANDRO           M505920000000000194807311S30250        00200004S00VIVAS BENITEZ JOSE ALEJANDRO                      00000000000053964614202205     BOGOTA                                  Cra 10 #97-27 Apt. 204                                 
CC0000000000401308CC0000000020550189CONTRERAS                     ANA                 LUCIA               F505920008127798195703251N303        0000100997S02COLPENSIONES                                      00000642129503511798202205     BOGOTA                                  CL 65 126 52 ENGATIVA                                  
TI0000001021514900TI0000001021514900VARGAS         PRIETO         DANIEL              SANTIAGO            M505920007829306200406021S301        0000100081S00FONDO DE PENSIONES PORVENIR                       00000336008802514900202205     BOGOTA                                  CRA 73 I NO 62A - 21 BL 11                             
CC0000000079323773CC0000000079323773BLANCO         TOVAR          EDGAR               AUGUSTO             M505920002384235196409163S301        0000101380S00IDEAM - BOGOTA                                    00000350011100529048202205     BOGOTA                                  CR 91N 19A 29 BQ1 AP203 STACL                          
CC0000000017114104CC0000000017114104RESTREPO       FORERO         CAMILO              EDMUNDO             M505920002532353194501181S301        0000101131S00RESTREPO FORERO CAMILO EDMUNDO                    00000253235303371977202205     BOGOTA                                  cra 65a # 94a-37                                   104 
CC0000000017114104CC0000000017114104RESTREPO       FORERO         CAMILO              EDMUNDO             M505920002532353194501181S301        0000101131S00RESTREPO FORERO CAMILO EDMUNDO                    00000253235303371977202205     BOGOTA                                  cra 65a # 94a-37                                   114 
CC0000000017114104CC0000000017114104RESTREPO       FORERO         CAMILO              EDMUNDO             M505920002532353194501181S301        0000101131S00RESTREPO FORERO CAMILO EDMUNDO                    00000253235303371977202205     BOGOTA                                  cra 65a # 94a-37                                   184 
CC0000000052802034RC0000001014890832VALDERRAMA     GUEVARA        MARIA               ANTONIA             F505920005236618201511273N30221        20200428S03MMS COMUNICACIONES COLOMBIA                       00000744911001516154202205     BOGOTA                                  CLL 109A NRO 18 50 APTO 403                            
CC0000000079052742CC0000000039541691RODRIGUEZ      DIAZ           LUCIA                                   F505920003023138196702111N303        0000100104S02ADECUACIONES Y CONSTRUREMODELACIONES SAS          00000452174505345544202205     BOGOTA                                  KR 90 BIS # 75 - 66 INT 2 APTO 401                     
CC0000000051924850CC0000000051924850GUERRERO       ACOSTA         SORAYA                                  F505920004641862196908162S301        0000100132S00GUERRERO ACOSTA SORAYA                            00000464186253919892202205     BOGOTA                                  CRR 13 7 17 P3                                         
CC0000000019090537CC0000000019090537ZULUAGA        BOTERO         MARINO                                  M505920000000000194905141S30140        00200227S00ZULUAGA BOTERO MARINO                             00000000000001909053202205     BOGOTA                                  KR 1 ESTE 74 98  APTO 402                              